:020000040800F2
:10000000D01C00209D0100083B6E000839650008E7
:10001000396E0008795D0008DD83000800000000EB
:1000200000000000000000000000000091790008BE
:100030009162000800000000F17700085F7C000872
:10004000B7010008B7010008B7010008B7010008B0
:10005000B7010008B7010008E1620008B701000815
:10006000B7010008B7010008B7010008B701000890
:10007000B7010008B7010008B7010008B701000880
:10008000B7010008B7010008B7010008B701000870
:10009000B7010008B7010008B7010008B701000860
:1000A000B7010008B7010008B7010008B701000850
:1000B000B7010008B7010008B7010008B701000840
:1000C000B7010008B7010008B7010008B701000830
:1000D000B7010008B7010008B7010008B701000820
:1000E0000D630008B7010008B7010008B701000858
:1000F000B7010008B7010008B7010008B701000800
:10010000B7010008B7010008B7010008B7010008EF
:10011000B7010008B7010008B7010008B7010008DF
:10012000B7010008B7010008B7010008B7010008CF
:10013000B7010008B7010008B7010008B7010008BF
:10014000B7010008B7010008B7010008B7010008AF
:10015000B7010008B7010008B7010008B70100089F
:10016000B7010008B7010008B7010008B70100088F
:10017000B7010008B7010008B7010008B70100087F
:10018000B7010008B7010008DFF80CD005F0F8FB54
:1001900000480047C5D20008D01C00200648804710
:1001A00006480047FEE7FEE7FEE7FEE7FEE7FEE75C
:1001B000FEE7FEE7FEE7FEE7A97C000889010008EC
:1001C000FE49C1F8E80070472DE9F04FDFF8ECB3C5
:1001D0000026044685B0174698468A463546B146FD
:1001E000DBF8AC0005F08DF93A46434605F014FA09
:1001F0007ED3DBF8B00005F084F93A46434605F0BB
:1002000023FAF5D3B4F90000B4F90610401A05F04A
:1002100078F93A46434605F0FFF900D20126B4F9D1
:100220000E00B4F91410401A05F06BF93A46434633
:1002300005F0F2F900D2761CB4F91C00B4F92210D2
:10024000401A05F05EF93A46434605F0E5F900D25A
:10025000761CDB4B012E4BDC00223846414605F074
:1002600034F807460E46B4F90000B4F90610401AF7
:1002700005F047F93A46334605F0E6F900D2012584
:10028000B4F90E00B4F91410401A05F03AF93A46E0
:10029000334605F0D9F900D26D1C31463E460F4673
:1002A000B4F91C00B4F92210401A05F02AF93246BC
:1002B0003B4605F0C9F900D26D1C002D03DD02207C
:1002C00005B0BDE8F08F002606EB460004EB800584
:1002D0000390B5F90A0005F014F9DAE90478434609
:1002E0003A4604F0ECFF83460091B5F9040000E0C3
:1002F00053E005F006F943463A4604F0E0FF5A465B
:10030000009B04F0E2FF83460291B5F9080005F076
:10031000F8F8DAE9027843463A4604F0D0FFCDE92E
:100320000001B5F9020005F0ECF843463A4604F046
:10033000C6FFDDE9002304F0C8FF80460491B5F94B
:10034000060005F0DEF8DAE900572A463B4604F0DD
:10035000B6FFCDE90001039834F9200005F0D1F88B
:100360002A463B4604F0ABFFDDE9002304F0ADFF75
:100370004246049B04F002FF5A46029B04F0FEFE34
:100380000022134605F048F901D209F10109761C53
:10039000032E99DBB9F1020F01DA012090E700206A
:1003A0008EE788490A684B68D00180EAD20080EA6B
:1003B000031048608B68520380EAC30382EA531239
:1003C000520282EAD0208B600860704770B5054603
:1003D000FFF7E7FF05F07AF87B4904F053FE6FF072
:1003E0001F06314604F0BEFE0AF0A6FA0446FFF7E7
:1003F000D8FF05F06BF8314604F0B4FE10F0FF4F63
:1004000001D14FF07E5005F0F3F80CF053FF0022BD
:100410004FF0404304F059FF05F02EF90EF0EFFCC9
:10042000294604F02FFE2146BDE8704004F02ABEA4
:100430002DE9FE4F054690460E46184605F0D8F8C1
:10044000CDE90010D6E9302304F03FFF04460F4603
:10045000404605F0CDF80291F5E93023834604F0DB
:1004600034FF22463B4604F089FE65E83001002453
:10047000DDE90010074606EBC40082460CC838468A
:1004800004F023FF05EBC4078046D7E90023894623
:100490005846029904F019FF42464B4604F06EFE9E
:1004A000C7E90001DDE90010DAE9242304F00DFFBB
:1004B000D7E92423804689465846029904F005FF6F
:1004C00042464B4604F05AFE641CC7E92401062C40
:1004D000CEDB0024DDE90010074606EBC400D0E9BE
:1004E0001223384604F0F1FE05EBC4020746D2E9B8
:1004F00012C38846914658460299624604F0E5FECA
:100500003A46434604F03AFE641CC9E91201092C3C
:10051000E0DB0024DDE90010074606EBC400D0E96B
:100520000C23384604F0D1FE05EBC4020746D2E99D
:100530000CC38846914658460299624604F0C5FEAF
:100540003A46434604F01AFE641CC9E90C01032C28
:10055000E0DBBDE8FE8F2DE9F04F044691B00F4679
:10056000086804F0CEFFCDE90E0105460E46786816
:1005700004F0C7FF81468A46B86804F0C2FF83468C
:100580008846D4E930015F460022104B04F0F6FDA6
:10059000C4E93001D4E90C012A46334604F0EEFDEB
:1005A000C4E90C01D4E90E014A46534604F0E6FDC5
:1005B000C4E90E0143463A460AE00000B00B0020B1
:1005C000000004408C000020DB0FC9400000F03F19
:1005D000D4E9100104F0D2FDC4E910012A463346E3
:1005E0002846314604F071FECDE90501D4E9002327
:1005F00004F0C4FDC4E900014A465346284631468A
:1006000004F063FECDE90001D4E9022304F0B6FD55
:10061000C4E9020143463A462846314604F055FEF5
:10062000CDE90301D4E9042304F0A8FDC4E90401E1
:100630004A4653464846514604F047FECDE9070175
:10064000D4E9062304F09AFDC4E9060143463A467C
:100650004846514604F039FED4E9082304F08EFDE3
:10066000C4E908013A4643461046414604F02DFECF
:10067000D4E90A2304F082FDC4E90A01DDE9050199
:100680002A46334604F021FED4E9122304F076FD15
:10069000C4E91201DDE900014A46534604F015FEA3
:1006A000D4E9142304F06AFDC4E91401DDE903016F
:1006B00043463A4604F009FED4E9162304F05EFDF1
:1006C000C4E91601DDE900012A46334604F0FDFDC8
:1006D000D4E9182304F052FDC4E91801DDE907014B
:1006E00053464A46CA461F46CDE9000104F0EDFDD7
:1006F000CDE90210D4E91A2304F040FDC4E91A013F
:100700005D46434646465A465046394604F0DDFDAE
:10071000834633462A46049104F0D7FDD4E91C23CE
:1007200004F02CFDC4E91C01DDE90E839946424624
:100730003146284604F0C9FD42464B4604F0C5FD4B
:10074000D4E91E2304F01AFDC4E91E01584652469E
:100750003B46049904F0B9FDD4E9202304F00EFDD2
:10076000C4E920012A4633461046314604F0ADFD67
:1007700033462A4604F0A9FDCDE90601D4E9222337
:1007800004F0FCFCC4E9220142464B46404649467F
:1007900004F09BFD834642464B460C9104F095FDC8
:1007A00042464B4604F091FDD4E9242304F0E6FCD4
:1007B000C4E92401DDE9021052463B4604F085FD00
:1007C000D4E9262304F0DAFCC4E92601DDE90601B8
:1007D00033462A4604F079FDD4E9282304F0CEFC00
:1007E000C4E92801584652463B460C9904F06DFD79
:1007F00052463B4604F069FDD4E92A2304F0BEFCCE
:10080000C4E92A01584633462A460C9904F05DFD96
:1008100033462A4604F059FDD4E92C2304F0AEFCFB
:10082000C4E92C01DDE9000133462A4604F04DFD00
:1008300033462A4604F049FDD4E92E2304F09EFCF9
:10084000C4E92E0111B03CE52DE9F74F0446B8B0DC
:10085000D4E90C0102460B46CDE9040104F035FD54
:10086000D4E90023CDE90C23D4E930560746884665
:100870002846314604F029FD43463A4604F01FFD60
:10088000CDE90201D4E90E0102460B46CDE91A0179
:1008900004F01BFDD4E90623074688462846314666
:1008A000CDE9102304F011FD43463A4604F007FD5C
:1008B000CDE90001D4E9100102460B46CDE90E0155
:1008C00004F003FDD4E90A2307468846284631464A
:1008D000CDE9142304F0F9FC43463A4604F0EFFC5A
:1008E000CDE90801DDE91A210B46DDE9040104F038
:1008F000ECFCD4E90223074688462846314604F03A
:10090000E4FC43463A4604F0DAFC3491DDE90E217A
:1009100082460B46DDE9040104F0D7FCD4E9042348
:10092000074688462846314604F0CFFC3A464346FF
:1009300004F0C5FC8946DDE90E2183460B46DDE95E
:100940001A0104F0C2FCD4E9082307468846284669
:10095000314604F0BAFC3A46434604F0B0FC074680
:100960008846DDE90401DDE9142304F0AEFCCDE99D
:100970000A01D4E916232846314604F0A6FCCDE945
:100980001601DDE90401DDE9102304F09EFCCDE948
:100990001201D4E914232846314604F096FCCDE92F
:1009A0000601DDE90401DDE90C2304F08EFCCDE94C
:1009B0000401D4E912232846314604F086FCDDE91F
:1009C000042304F07CFCDDE9062304F0D7FBDDE919
:1009D000122304F074FCDDE9162304F0CFFBDDE9FB
:1009E0000A2304F06CFC4FF0FF3204F04FFDCDE918
:1009F0002601DDE91A01DDE9142304F066FCCDE9E6
:100A00001601D4E91C232846314604F05EFCCDE9EA
:100A10001201DDE91A01DDE9102304F056FCCDE9ED
:100A20000A01D4E91A232846314604F04EFCCDE9E8
:100A30000601DDE91A01DDE90C2304F046FCCDE9ED
:100A40000401D4E918232846314604F03EFCDDE9D0
:100A5000042304F034FCDDE9062304F08FFBDDE918
:100A60000A2304F02CFCDDE9122304F087FBDDE906
:100A7000162304F024FC4FF0FF3204F007FDCDE90B
:100A80000401DDE90E01DDE9142304F01EFCCDE9CB
:100A90000A01D4E922232846314604F016FC0DF160
:100AA000380CCDE906019CE80F0004F00EFCCDE9FE
:100AB0001001D4E920232846314604F006FCCDE994
:100AC0001201DDE90E01DDE90C2304F0FEFBCDE9A6
:100AD0000C01D4E91E232846314604F0F6FBDDE97B
:100AE0000C2304F0ECFBDDE9122304F047FBDDE905
:100AF000102304F0E4FBDDE9062304F03FFBDDE90D
:100B00000A2304F0DCFB4FF0FF3204F0BFFC379106
:100B10000546DDE90201DDE9002304F0D6FBDDE94D
:100B2000082304F0D2FBCDE90601DDE902013A46D3
:100B3000434604F0CAFB3A46434604F0C6FBCDE9FF
:100B40000A01DDE900015A464B4604F0BEFB5A4655
:100B50004B4604F0BAFBCDE90C0101225046349912
:100B600004F094FC5A464B4604F0AFFB3A46434629
:100B700004F0ABFB06460E91DDE908015246349BBA
:100B800004F0A3FB5246349B04F09FFB32460E9BBD
:100B900004F095FBDDE90C2304F0F0FADDE90A230B
:100BA00004F0ECFADDE9062304F089FB0022134689
:100BB000CDE90C0104F030FD7ED03A464346504664
:100BC000349904F082FB2A46379B04F07EFBCDE982
:100BD0000A01DDE908015246349B04F076FBCDE9B9
:100BE0002310DDE9042304F070FBCDE90601DDE903
:100BF0000001DDE9082304F068FBDDE9262304F0A9
:100C000064FBCDE910013A4643461046194604F00C
:100C10005CFBDDE9262304F058FBCDE90E01DDE99C
:100C200004233846414604F050FB06461291DDE9A4
:100C300000012A46379B04F048FB3246129B04F021
:100C40003EFB5A464B4604F040FBDDE90E2304F020
:100C500095FADDE9102304F032FBDDE9062304F008
:100C60008DFADDE90A2304F02AFBCDE912015A4688
:100C70004B465046349904F028FB199106462A4603
:100C8000379B04F022FBCDE90A01DDE92310DDE901
:100C9000262304F01AFBCDE90601DDE90201DDE9B6
:100CA000082304F012FBDDE9042304F00EFB5A468E
:100CB0004B46CDE90E0100E006E11046194604F06E
:100CC00004FBDDE9042304F000FBCDE90801DDE9C4
:100CD00026235846494604F0F8FACDE91001DDE92B
:100CE00002012A46379B04F0F0FADDE9102304F0F4
:100CF000E6FA3A46434604F0E8FADDE9082304F050
:100D00003DFADDE90E2304F0DAFADDE9062304F00A
:100D100035FADDE90A2304F0D2FACDE90E01DDE966
:100D200004233046199904F0D0FA06460891DDE90B
:100D300000015A464B4604F0C8FADDE9262304F0C8
:100D4000C4FACDE90601DDE90201DDE9002304F082
:100D5000BCFA2A46379B04F0B8FACDE90001349B6F
:100D600052461046194604F0B0FA2A46379B04F062
:100D7000ACFADDE926238B460A905046349904F0FC
:100D8000A4FA0DF1080C054689469CE80F0004F012
:100D90009CFA2A464B4604F092FA3A46434604F03F
:100DA00094FA5B460A9A04F0E9F9DDE9002304F0BD
:100DB00086FADDE9062304F0E1F93246089B04F0E7
:100DC0007EFA05460E46DDE91201DDE90C2304F04A
:100DD000EEFA399A81468A46C2E90001DDE90E0140
:100DE000DDE90C2304F0E3FA399A07468846C2E9A4
:100DF0000201DDE90C232846314604F0D8FA399A7D
:100E000005460E46C2E90401D4E9102304F05DFA58
:100E10000291D4E90E2383463846414604F055FA40
:100E2000CDE90001D4E90C234846514604F04DFABF
:100E3000DDE9002304F0A2F95A46029B04F09EF972
:100E4000012204F023FB83460091D4E90001D4E998
:100E5000062304F093F9D4E90A2304F08FF95A46E3
:100E6000009B04F02CFAD4E9302304F0A0FACDE979
:100E700000012A4633461046194604F026FA044675
:100E80008B463A4643461046194604F01EFA05467C
:100E90000E464A4653461046194604F016FA2A46AC
:100EA000334604F06BF95B46224604F067F9DDE94E
:100EB000002304F063F90DF06BFF3A9AC2E90001D8
:100EC00001203BB0BDE8F08F0020FAE72DE9F34F99
:100ED0009DB004461E98D0E9006732463B46304636
:100EE000394604F0F2F9D4E90C939A464A4604F0E4
:100EF000ECF94A46534604F0E8F905468846D4E939
:100F0000300132463B46CDE9080104F0DEF93246B5
:100F10003B46CDE90B0104F0D8F9D4E90023CDE933
:100F2000062304F0D2F92A46434604F0C8F9019199
:100F3000DDE9062383463046394604F0C6F94A46C1
:100F4000534604F0C2F905468846DDE90B01D4E9B1
:100F5000122304F0BAF95A46019B04F0B3F92A4669
:100F6000434604F00BF9CDE9000101223046394631
:100F700004F08CFA1E9ACDE90201D2E90253984698
:100F80002A4604F0A2F94A46534604F09EF9D4E9F1
:100F90000E23CDE9042304F098F983460A91DDE994
:100FA0000801012204F072FA32463B46CDE91401F1
:100FB00004F08BF943462A46CDE90F0104F085F988
:100FC000D4E9022304F081F9DDE9002304F0D6F826
:100FD0005A460A9B04F073F9CDE900014A4653468C
:100FE0003046394604F071F9CDE90D01D4E906B374
:100FF0005A460A9304F069F906460F46DDE90B01EB
:10100000D4E9142304F061F9DDE9002304F05AF96E
:1010100032463B4604F0B2F8CDE90001DDE90201B9
:101020001E9AD2E904631F46324604F04EF94A463E
:10103000534604F04AF9D4E91023CDE9022304F021
:1010400044F981468A46DDE90F013B46324604F009
:101050003CF9D4E9042304F038F9DDE9002304F075
:101060008DF84A46534604F02AF9CDE90001DDE93E
:101070000D01D4E90A939A464A4604F026F9CDE9CF
:101080000E01DDE90B01D4E9162304F01EF9DDE9B8
:10109000002304F017F9DDE90E2304F06FF8CDE921
:1010A0000001DDE906016FF0010204F0EFF9DDE96E
:1010B000062304F00AF9CDE90C01DDE908016FF01F
:1010C000010204F0E3F9CDE90E01D4E9242304F090
:1010D000FCF8DDE9002304F051F8DDE90C2304F00D
:1010E000EEF8CDE90001DDE906232846414604F08B
:1010F000ECF8DDE9042304F0E8F8CDE91201DDE9BC
:1011000008012A46434604F0E0F8CDE90B01D4E992
:10111000182304F0DAF8DDE9002304F0D3F8DDE960
:10112000122304F02BF8CDE90001DDE906014FF0B0
:10113000FF3204F0ABF95A46CDE916010A9B04F0E0
:10114000C4F8CDE91A01DDE908014FF0FF3204F0DF
:101150009DF9CDE91101D4E92A2304F0B6F8DDE9BF
:10116000002304F00BF8DDE91A2304F0A8F8CDE918
:101170000001DDE906233046394604F0A6F8DDE932
:10118000022304F0A2F8CDE91A01DDE90801324694
:101190003B4604F09AF8CDE90601D4E91E2304F099
:1011A00094F8DDE9002304F08DF8DDE91A2303F05B
:1011B000E5FFCDE90001DDE916014A46534604F09A
:1011C00084F8CDE90801DDE91101D4E92C2304F00C
:1011D0007CF8DDE9002303F0D1FFDDE9082304F00A
:1011E0006EF8CDE900012A4643461046194604F040
:1011F0006CF8DDE9042304F068F8DDE9042304F069
:1012000064F8CDE91601DDE90B012A46434604F0F6
:101210005CF85A460A9B04F058F8DDE9002303F015
:10122000ADFFDDE9162304F04AF8CDE900015A4686
:10123000284641460A9B04F048F8DDE9042304F0FF
:1012400044F8CDE91601DDE90B01D4E91A2304F0D5
:101250003CF8DDE9002304F035F8DDE9162303F05E
:101260008DFFCDE9000101222846414604F00EF928
:1012700032463B4604F029F8DDE9042304F025F862
:10128000DDE9022304F021F8CDE90801DDE91401CC
:101290002A46434604F019F832463B4604F015F856
:1012A000D4E9082304F011F8DDE9002303F066FF18
:1012B000DDE9082304F003F8CDE90001DDE90423AA
:1012C0002846414604F001F84A46534603F0FDFF24
:1012D00080460D46DDE90B01D4E91C2303F0F5FF40
:1012E000DDE9002303F0EEFF42462B4603F046FF04
:1012F000054601916FF0010258460A9904F0C6F8BC
:101300005A460A9B03F0E1FF80460091DDE90E0199
:10131000D4E9262303F0D9FF2A46019B03F02EFFD0
:101320004246009B03F0CBFF80460D465A463046AE
:1013300039460A9B03F0C9FFDDE9022303F0C5FF2C
:10134000CDE90001DDE90601D4E9202303F0BDFF6A
:1013500042462B4603F0B6FFDDE9002303F00EFF03
:10136000054688464FF0FF3258460A9904F08EF839
:101370004A46534603F0A9FF83460091DDE9110177
:10138000D4E92E2303F0A1FF2A46434603F0F6FEDC
:101390005A46009B03F093FF0546884632463B467B
:1013A0001046194603F091FFDDE9022303F08DFF9B
:1013B000DDE9022303F089FF83460091DDE90601A0
:1013C00032463B4603F081FF4A46534603F07DFF19
:1013D0002A46434603F0D2FE5A46009B03F06FFFB5
:1013E000054688464A4653463046394603F06DFF67
:1013F000DDE9022303F069FF06460F46DDE9060139
:10140000D4E9222303F061FF2A46434603F05AFF42
:1014100032463B4603F0B2FE074688466FF00102B3
:101420004846514604F032F84A46534603F04DFF11
:1014300006460D46DDE90E01D4E9282303F045FFF9
:101440003A46434603F09AFE1FB032462B46BDE8AB
:10145000F04F03F034BF30B50446B0F88C0089B0CB
:1014600000040690B4F88E000D4600040790B4F80E
:10147000900088340004089002A80AF033FE029914
:1014800006982B46401A06900399079806AA401A18
:10149000079004990898401A08902088616A80B2E1
:1014A0000AF0BEFC09B030BD2DE9F04786B00D460C
:1014B0006946FFF7D0FF002637463446E9466FF00D
:1014C0000F0A0DF10C0859F8240003F0F6FF5146FD
:1014D00003F048FE48F82400014603F0D3FD04F071
:1014E00087F832463B4603F049FE641C06460F4629
:1014F000032CE8DB0DF04CFC06460F46002458F8A0
:10150000240004F075F832463B4603F050FF04F027
:10151000B3F855F8241003F05DFD45F82400641C71
:10152000032CECDB686D401C68650BF065F8E86720
:1015300006B0BDE8F0872DE9F04104460AF078FED8
:1015400040BB0AF0FDFD042824D0FE4920460E468B
:10155000FFF7AAFFFC4DD5E95C01814205DB30466F
:1015600003F0FDF90020C5F87401208E4FF0040649
:10157000C00515D504F118000AF04EFE8009B0F53B
:10158000C87F0AD2D5F8B800002850DD401EC5F843
:10159000B8004AE00120BDE8F081C5F8B86044E039
:1015A000D4F8A010D5F81401081A01D4034600E0BD
:1015B0004342E44A4FF4A02C583A634505DDD4E990
:1015C00029035365C2E913102FE00312D4F8A47065
:1015D000D5F818015B43381A01D4864601E0C0F102
:1015E000000EE64505DDD4F8A800D164C2E9147008
:1015F0001BE0001200FB0033D4F8A800D5F81C1142
:10160000401A01D4014600E0414261450DDC001260
:1016100000FB0030B0F5403FB4DBA034C5F8B86043
:1016200094E80B004C3282E80B000020B3E7022064
:10163000B1E72DE9F04F93B0C34CD0E90023D4F8C3
:10164000A81004EBC101C1E90023D4F8A810491C7B
:10165000C4F8A810D0E9022304EBC101C1E90023BA
:10166000D4F8A810491CC4F8A810D0E9042304EB4E
:10167000C100C0E90023D4F8A800401CC4F8A800A9
:10168000152802DB0020C4F8A8001822AE490CA8D7
:1016900003F05AFC1822AC4904A803F055FC0126BB
:1016A0000DF130090DF1100AA346002406EB46089F
:1016B00008EB04010BEBC10509EBC407D5E90023D6
:1016C000D7E9000103F0C0FF03D2D5E90001C7E963
:1016D0000001D5E900230AEBC407D7E9000103F0B4
:1016E0009BFF03D2D5E90001C7E90001641C032C6C
:1016F000DEDB761C072ED8DBDDE90401DDE90C23F7
:1017000003F0DDFD05460C46DDE90601DDE90E23AB
:1017100003F0D5FD2A46234603F07EFF02D2284679
:10172000214605E0DDE90601DDE90E2303F0C7FDF2
:1017300005460C46DDE90801DDE9102303F0BFFD95
:101740002A46234603F068FF04D213B028462146F8
:10175000BDE8F08FDDE90801DDE9102313B0BDE835
:10176000F04F03F0ACBD2DE9F0419CB006460024DB
:101770000E945520CDE90F401190744D0AA80AF03F
:1017800077FC12A90AA80BF026F816AA0EA912A82F
:101790000BF044F86A460AA916A80BF03FF8019826
:1017A0006B4F00F596700190029800F596700290CC
:1017B000039800F5967003903846FEF707FE03F095
:1017C000BEFE0199084401903846FEF7FFFD03F084
:1017D000B6FE0299084402903846FEF7F7FD03F082
:1017E000AEFE039908440390304601A9FEF7B3FE0C
:1017F000D6E930010022574B03F026FF35D21AAA52
:1018000004A93046FFF720F878B3DFF84C81DDE912
:1018100008010022434603F052FD02460B4603F046
:1018200054FD06460F46DDE906010022434603F05B
:1018300046FD02460B4603F048FD04460D46DDE931
:1018400004010022434603F03AFD02460B4603F032
:101850003CFD22462B4603F091FC32463B4603F00A
:101860008DFC0DF095FA04460D461CB02046294625
:10187000BDE8F0410022394B03F099BD10B5E821D5
:10188000374803F088FB3048364920F8BC1F4A0C23
:10189000C280C1818282818342842B48E821E8385A
:1018A00003F079FB28490020C1F8B40010BD2DE9F0
:1018B000F04F254F0446C5B0006BC7F8A001204685
:1018C000FFF739FE00287DD1D7F8941107F1BC004D
:1018D0003D90012911D1B4F98C004090B4F98E00EB
:1018E0004190B4F99000429040A91D48FEF733FEA4
:1018F00004F18C013D9800F023FBD7F80801002883
:1019000002DD401EC7F8080115480022E8381346DA
:10191000D0E93051284603F097FE7CD21049E822E6
:10192000E839684603F010FB0D4840A9E838FEF797
:1019300012FE0B493EAA2039A1F1C8004391FEF7DF
:1019400083FF11E0D00C0020B00B002000408F403E
:10195000000028410000344000C0724000000840F0
:10196000E00900200080FFFF002866D0FE48439970
:10197000FFF7ACFAD7E9402305460E46E03703F0FF
:101980009EFCDFF8E4B380468946DBE930010022A3
:10199000F64B03F094FC02460B464046494603F0E2
:1019A00006FD0DF0F5F9DBE9308B81468A46002211
:1019B000EE4B4046594603F082FC42465B4603F03C
:1019C00084FC00E0C1E080468B4601222846314677
:1019D00003F05CFD42465B4603F0E9FC0DF0D8F9EC
:1019E000B86803F005FE77E8382303F06EFC4A463A
:1019F000534603F011FE03D3D7F80801002822DD77
:101A0000E8226946D84803F09FFAD7F8E800E037A3
:101A100003F0EEFD00E00FE077E8382303F055FC1B
:101A20004A46534603F0F8FD4CD24FF4FA7001F0E9
:101A30007BFD0A20C7F8080144E0E8226946CA484D
:101A400003F082FA3EE0D7F8980101283AD1D7F89E
:101A5000B400401CC7F8B40000200BF0D1FADFF846
:101A600008831022D8E9320103F010FD03F0A1FD34
:101A70003A90D8E93401102203F008FD03F099FDF3
:101A80003B90D8E93601102203F000FD03F091FDF0
:101A90003C9003213AA80BF021FAD8E9300100224A
:101AA000B34B03F0D1FD0BD2B24A41461346084670
:101AB000FEF7BEFC40464399FFF708FA05460E467E
:101AC000C7E94056208EC00509D5B4F87400C0059A
:101AD00005D5A948FFF747FE05460E4601E0A74E8B
:101AE0000025A1480022E830A54BD0E9301C08466B
:101AF000614603F091FD28D39F493EAA2039A1F108
:101B0000C8000291FEF7A0FE00287DD0D4F8AC00FA
:101B100003F0F7FC02460B469A489B4903F047FC4A
:101B2000804689460298FFF784FD82468B464246EE
:101B30004B4603F089FD09D20022944B28463146DA
:101B400003F06AFD02D2FFF799FE8EE142464B4652
:101B50005046594603F060FD7ED200228C4B284649
:101B6000314603F059FDF7D27F4E0022E836894B0B
:101B7000D6E9300103F068FDEED2DFF8ECB10022C7
:101B80001346DBE9300103F047FD72D1304602997C
:101B9000FFF79CF9B84607F58077B14603C7D6F83A
:101BA000C060D9F8C47004460D4600226F4B304621
:101BB000394603F084FB32463B4603F086FB06467B
:101BC0000F4601222946204603F060FC32463B4680
:101BD00003F0EDFB0DF0DCF804460D46D8F8E80004
:101BE00003F006FDD8E9382303F06FFB22462B46AD
:101BF00003F012FDA7D33DAC029994E80D00FEF767
:101C0000E3FA02289FD000E030E100289DD1D8F807
:101C10009801012899D100200BF0F2F94C461022CE
:101C2000F4E9320103F032FC03F0C3FC3A90D4E94A
:101C30000201102203F02AFC03F0BBFC3B90D4E924
:101C40000401102203F022FC03F0B3FC3C900321BA
:101C50003AA80BF043F901E0FDE00AE001200BF0A7
:101C60006BF9192003900490059003A80BF05AF922
:101C7000E8E0B946D7F8B40003F043FCD6E93023D6
:101C800003F095FB444A454B03F0DEFCB2D33648E3
:101C90000299E830FFF71AF9B246D6F8C060DAF8D0
:101CA000C47080460D460022304B3046394603F062
:101CB00006FB32463B4603F008FB06460F46012270
:101CC0004046294603F0E2FB32463B4603F06FFBF9
:101CD0000DF05EF806460F46D9F8E80003F088FCE0
:101CE000D9E9382303F0F1FA32463B4603F094FC7D
:101CF000CCD33DAE029996E80D00FEF765FA0028B8
:101D00007ED15F465646D7E93623D6E93601C83636
:101D1000C83703F0D4FA02460B4603F0D6FAD7E9E7
:101D2000022382468B46D6E9020103F0C8FA024636
:101D30000B4603F0CAFACDE90001D7E9002376E8A3
:101D4000320103F0BCFA02460B4603F0BEFADDE9AD
:101D5000002303F013FA52465B4603F00FFA0DF02E
:101D600017F807468A461BE0F80800200000F03FFD
:101D700000409F406666E63EC80A0020000008401A
:101D8000000034409A9999999999A9410000F83F27
:101D90000000104000003E400AD7A3703D0AE73F14
:101DA000D4F8AC0003F0ADFB3A46534603F08DFA8D
:101DB0006FF01D0203F06AFB04460F4600228D4BB4
:101DC00003F042FC15D300228B4B2046394603F02A
:101DD0003BFCBFF4B8AED9F8B40003F092FBD6E9EF
:101DE000302303F0E4FA4FF03332844B03F014FC59
:101DF000EFD2D9F898014C4601287FF4A4AE00E058
:101E000033E000200BF0FCF8C4E94085F6E932012C
:101E1000102203F03BFB03F0CCFB3A90D6E9020121
:101E2000102203F033FB03F0C4FB3B90D6E904011E
:101E3000102203F02BFB03F0BCFB3C9003213AA8DB
:101E40000BF04CF86E494FF07E530022A1F1E800F0
:101E5000FEF7EEFA77E66A4800226A4BD0E93014C2
:101E60000846214603F0F0FBF4D3002045B06FE4B0
:101E700070B5654C0546D4F80C0110B9284600F041
:101E80008AF8D5F8B01044F6206081420ADAD4F816
:101E9000102111448142C4F810114FF0000005DBFD
:101EA000C4F810012846BDE8704000E570BD04226A
:101EB0004FF4C871AFF247000AF0A4BEAFF24F0072
:101EC0000BF0A4B94E4810B5E821E83803F063F8E8
:101ED000FFF7D4FC4FF4D4714B4803F05CF84A4C44
:101EE0004FF07E50C4F8E80004F5907004F5887453
:101EF00002F09FFC0A2020664FF08240E0641E2022
:101F0000E0664248A067424860674248E0670020B8
:101F100010BD10B5FFF7D6FF002805D1AFF2710054
:101F2000BDE810400AF0FCBE10BD10B5AFF2BF0016
:101F30000BF06CF9AFF28900BDE810400BF094B9DA
:101F400030B50022C2EBC20331F9124030F9135010
:101F5000AC420ADD02EB42040D8820F8245000EB6D
:101F600084044D8865808D88A58000EB430331F99A
:101F70001240B3F906309C4209DA02EB420300EB4F
:101F800083030C88DC804C881C818C885C81521C0B
:101F9000032AD7DB30BD70B51B4DD0F8AC2004460A
:101FA000EAB1D3170020192102F07CFF45F8AC0FED
:101FB00054F8AC2F0020D317052102F073FF68609E
:101FC00022680020D317962102F06CFF03F099FAE3
:101FD000C5E90D01AC3D0120C5F80C0170BD6FF0E5
:101FE0000040C5F8AC00C5F8B0000B498005C5E954
:101FF0003801F0E700001040000004403333C33FD5
:10200000E009002000409F40B00B0020CDCCCC3E2A
:102010003333333F9A99193FFFFFDF4110B5F94938
:10202000C4074FF040434FF0804205D08B66CB662B
:10203000C1E91C328A67CA67840709D5C1F8003133
:10204000C1F80431C1E94232C1F81021C1F81421AC
:10205000400709D5C1F89831C1F89C31C1E968320F
:10206000C1F8A821C1F8AC2110BD2DE9F14F82B013
:10207000002102988A468946806F00287DD0002280
:102080000020401C0428FCDB02984FF0000C00EB01
:10209000C203D3E90010A1FB0167D3E9065400FB9A
:1020A000017701FB0077CDE90067A646AE1B64EB24
:1020B0000704AB460327A6FB075804FB078406FB6F
:1020C0000C44DDE90067AD197C41A5FB016704FB09
:1020D000017405FB0045D3E90C47341B65EB07058C
:1020E000CDE900455D46A5FB05670324A6FB045822
:1020F0000EFB0B770BFB0E7707FB048406FB0C44EF
:10210000D3E91263761B63EB04034C18A4FB017C38
:1021100040EB000505FB01C504FB0055A7FB014C86
:1021200005FB01C507FB0055A4FB017C05FB01C5B0
:1021300004FB0054F6196341DDE90045AD0045EAB2
:102140009475A400A4FB017C05FB01C104FB0014F1
:10215000F01B73EB040103D50023404263EB010144
:10216000BAEB000479EB010301DA82468946521C7E
:10217000032A85DB5046494600E010E003F0ABF946
:10218000A149896B02F0B0FF03F0F2F99D4AD2F841
:102190000C2203B09200BDE8F04F02F0C3BE002055
:1021A00003B00146BDE8F08F2DE9F14F0020009A01
:1021B0000146926FF2B300240022521C042AFCDB79
:1021C000009A02EBC405AA46D5E90029A2FB023C0D
:1021D000D5E906769E46FB1A0325A3FB057809FB85
:1021E00002CC02FB09CB66EB0B0606FB05854FF024
:1021F000000C03FB0C5617EB0E03A3FB027C46EB13
:102200000B0606FB02C203FB0923DAE90C25BA1A06
:10221000AB4103D50025524265EB0303851A71EBF0
:10222000030501DA10461946641C032CC4DB03F0D5
:1022300052F900E00EE07449896B02F055FF03F09B
:1022400097F9704AD2F80C22BDE8F84F02EB42022F
:1022500002F068BE00200146BDE8F88F2DE9FE437C
:10226000684D80460024D5F810626F4605EBC40126
:102270003246D1E9020102F046FE05EB8401B1F8D5
:1022800084100904401847F8240004F10104032CC9
:10229000ECDB5C489821083002F07DFE0120FFF75E
:1022A000BDFE95F8E8010199042807D1D5F8180278
:1022B000B0F5201F02DD052085F8E801524C00989A
:1022C000636AC11A01D40E4600E01E1A0198A26A80
:1022D000801A01D4074601E0019FD71BBE4206DDEC
:1022E000002901D4084606E00098181A03E00028E7
:1022F00001D50198101A029AE16A521A01D41346C4
:1023000001E0029BCB1A834205DB002A01D4104670
:1023100001E00298081AD8F824100AF023FAD5F838
:102320001812814206DD032168460AF0B9FE022038
:102330000AF00CFF009860620198A0620298E062C7
:10234000BDE8FE83304AC2E9020170472E4AC2E965
:10235000060170472C4AC2E904017047294AD2F8A5
:10236000E0310360D2E97402C1E900027047254AF6
:10237000D2F8E0310360D2E97602C1E90002704789
:102380002DE9FE4781460020EA468A6F22B901EB1B
:10239000800339F91020DA6701EB800239F9103037
:1023A000D46F1D1B4AF82050136E9D4200DD156648
:1023B000D36E9D4200DAD5660123002422464FEAFF
:1023C000E578A3FB056704FB057403FB084433466B
:1023D00002EB420601EBC60606EBC00CDCE9007618
:1023E000FF186641CCE90076521C042AE9DB401C48
:1023F0000328CADB886F401C88670120C1F8900061
:10240000BDE8FE87580D0020B80F002030B500232E
:1024100002EB830550F823405B1CEC66032BF7DBD3
:10242000C2F88810916F79B1002102EB810450F855
:102430002130E56F5B1B00D55B42256E9D4200DAC3
:102440002366491C0329F0DB906F401C9067012034
:10245000C2F8900030BD10B500210B4600EB8102A0
:10246000491CD46ED46713660329F7DBD0F88810B3
:1024700040F8783FC0E9051310BDD0E92210081AD2
:1024800070470146D1E91802824200DB1046896E8E
:10249000814200DB084670472DE9F0478046501E18
:1024A000012686408946C2F12007404602F03AFDE7
:1024B00004460D46404649463A4602F024FD3A4657
:1024C00002F030FDB04203DD641C45F1000505E07B
:1024D0007142884202DA641E45F1FF3520462946E2
:1024E000BDE8F087F7490020086248628862C86248
:1024F000086448648864C864086348638863C86380
:10250000086548658865C865704730B5EE4AD2F8F9
:10251000483223B1D2E990542D1A8C4101DAC2E934
:1025200090015B1CC2F8483230BD30B5E64AD2F8A3
:10253000583223B1D2E994542D1A8C4101DAC2E900
:1025400094015B1CC2F8583230BD30B5DE4AD2F877
:1025500028322BB1D2E98845041B71EB050401DA5E
:10256000C2E988015B1CC2F8283230BD30B5D64ABA
:10257000D2F838322BB1D2E98C45041B71EB05043B
:1025800001DAC2E98C015B1CC2F8383230BD2DE99A
:10259000F0470246CC48012508308046C36E016EE4
:1025A000046FC91A436E1B1B8B4200DB1946836EF6
:1025B000D8F87400181A884200DB0146C14F603712
:1025C000F86B884204DA002400F00AFA204687E714
:1025D000108E0124BC4EC0054FF000010ED5D6F878
:1025E00080303068834209DBB2F87420D20506D50A
:1025F000D6F8B021824201DB052400E00C4674B31A
:10260000600719D5AF48C8388146FFF72EFD000D89
:1026100040EA01300915C6E97601D7E904321B1AF0
:102620008A4102DA0025FFF7A1FF9821484602F00F
:10263000B2FC0420FFF7F2FCE0070ED04046FFF7A3
:1026400014FDC6E97C01D7E906340246181A8C410C
:1026500003DA00251046FFF778FF284640E7FFE73A
:1026600002203DE71EB5044690F83000C0F381100B
:10267000032804D19449201D0831FFF781FE94F806
:102680007400C0F38110032805D18E4904F148007D
:10269000C839FFF775FED4F8B8008B4AC0F3811330
:1026A000A0326946032B0FD0C0F3411003281AD182
:1026B000002004EB8003D3F8A0309B1341F82030B6
:1026C000401C0328F5DB09E0002004EB4003B3F9CC
:1026D0008C3041F82030401C0328F6DB6846D4F8E3
:1026E000C010FFF793FE1EBD2DE9F0470546002000
:1026F000296BCA0567D501F05001402900D101209E
:1027000095F8741001F05001402900D1012095F88E
:10271000B8106D4C01F05001402900D030B100F0EC
:102720005FF90020C4F8E00184F8E801654ED4F8B0
:102730000812E86A6036814225D0C4F808020A28E7
:10274000306B0ADA40002060716B491CC4F80C122F
:1027500002F0B3FE0CF053FB04E02060706BC4F891
:102760000C02B06BC4F81402D4F80C02C0F11000D3
:10277000C4F810024FF48040C4F8180296F83410E0
:1027800019208840F0632846FFF76CFF94F8E811A1
:10279000DFF8349105274FF0020809F1A009072955
:1027A00011D2DFE801F0041127305E7E8500D4F8F5
:1027B000E001411CC4F8E0110A2804DB00F010F924
:1027C000012084F8E80186E0D4F89800012810D1AF
:1027D0002846FFF7DCFE10B1012803D004E084F89E
:1027E000E87101E084F8E8814846FFF734FEFFF71E
:1027F00079FE70E0032084F8E8012846FFF72EFDFB
:1028000000F0EEF867E02846FFF7C1FEF0B30128BC
:1028100061D1B5F8B8004FF00403C00515D548469E
:10282000FFF72FFE0146C017C4E97410D6E902C2B3
:10283000BCEB0101824102DA84F8E87108E0484605
:10284000FFF71BFE316A884202D384F8E83124E0A6
:10285000F4E97601FFF769FED4E90601FFF755FEBA
:1028600039E0B5F8B800C0050BD54846FFF709FEBA
:102870000146C017C4E97410D6E90232591A8241E0
:1028800008DB2846FFF783FE00B100E002E00128E4
:1028900003D020E084F8E8711DE02846FFF7DEFC55
:1028A000D6E7062084F8E80101200AF04FFC0DE08D
:1028B0002846FFF76CFE012801D038B10BE084F800
:1028C000E88108E0580F0020580D002000F088F83B
:1028D0004846FFF7C0FD002002E610B50021401079
:1028E000002802D001F10101F9DC454C4FF0010054
:1028F00001F1010100FA01F0C4E90C0102F0DDFD73
:102900000CF07DFAA06394F8341019208840E0633D
:1029100010BD10B54FF418713A4802F03CFB40214D
:10292000374802F038FB0720FFF778FB344840F2C5
:10293000DC510022C0E906121421C0E902124FF452
:102940001671C0E9041230492E4C01620120C4F80E
:10295000E4011920FFF7C1FF0020C4F8080210BDF0
:1029600010B54FF41871274802F015FB0720FFF748
:1029700055FB244801210022C0F8E41180F8E81139
:10298000032101200AF0D8FB07226421AFF2A7201F
:10299000BDE810400AF036B910B501200AF0D6FBA8
:1029A000AFF2BB20BDE810400AF030BC10B5FFF715
:1029B000B0FF002805D1AFF25700BDE810400AF083
:1029C000AFB910BD10B5FFF7E7FFAFF26B00BDE880
:1029D00010400AF049BC0B49D1E97C0170477047AF
:1029E000084810B59821083002F0D5FA9821074818
:1029F00002F0D1FABDE810400520FFF70FBB000040
:102A0000B80F0020580D00200008AF2F900E0020B6
:102A10002DE9FC5F0D460026416B99469246B04673
:102A2000002904DBD0F8BC00032800D10126FF49AF
:102A30002422081F02F088FAFC4FC03F0024C7F888
:102A4000E05007EB8400D0F8BC10404602F0C2FA18
:102A5000641C80460A2CF4DBF54902F045FBF54C7A
:102A600080464FF0C80BC7F8E400BAF1320F21DB03
:102A70004846C7F81CB102F020FD00900190EE49D5
:102A8000284602F031FB019902F0FCFA214602F0DF
:102A90002BFB0446BAF57A7F33DBE8492846009CD5
:102AA00002F022FB214602F0EDFAE24902F01CFBA3
:102AB000044626E041F2883199FBF1F04042D7F814
:102AC0001C1100EB80004018C7F81C0102D5002043
:102AD000C7F81C01484602F0F0FC8246D849284657
:102AE00002F002FB514602F0CDFA214602F0FCFA58
:102AF0000446D7F81C0120B9D7F82801012800D1D5
:102B00000024D7F8200100B12C46CE49894500D1D8
:102B10002C4614F0FF4F11D04046C7F8E8804146DC
:102B200002F0AAFA20F00040C74902F0CBFD22D201
:102B3000D7F8B80010F0FF4F03D01CE0D7F8E8003A
:102B4000EDE7C6B14846C7F81CB102F0DAFC04460E
:102B50000E46284602F04CFD0022BC4B02F027FC3A
:102B60002246334602F0B1FB0022B94B02F01FFCB3
:102B700002F082FD04462046BDE8FC9F2DE9F04F9F
:102B8000ABB04FF0000AA94FCDF810A0C03FCDF870
:102B900014A0CDF818A00446D7F82011022003296C
:102BA0007DD0002620AD07EB8600D0F8A80002F00B
:102BB00084FC6FF01D0102F0D5FA45F82600761C62
:102BC000042EF0DB0FA809F053FA24A809F0BEFA8E
:102BD000964B24AA183B0FA92046279300F0F4F93E
:102BE000064604F1180009F017FB82099548D7F84A
:102BF0003031834200DB034631462046FFF708FFB1
:102C0000BB4607F1B806D7F8EC1002F03BFA30608B
:102C10000BA809F02DFA13A90BA809F085FF83482A
:102C20000FAA3C300BA9064609F0F8FD31460BA867
:102C300009F0D1FD00210DF13C080DF14C090DF119
:102C4000100E00221346104601EB410C0CEB00075E
:102C500059F8276008EB8007401C7F680328C6FBF3
:102C60000723F3DB900F40EA83004EF82100491C54
:102C70000329E6DBDBF820015F4600287DD05046C3
:102C8000CDF818A0404202F018FC6FF01D0949462B
:102C900002F068FA07F050FED046564600E074E0B5
:102CA000CDE9000A0698CDF808A0404202F005FCE4
:102CB000494602F057FA0CF063F80390D7F8300158
:102CC00041F2883190FBF1F04FF0804A02F0F5FBC1
:102CD00028902990069802F0F0FBDFF878B1594669
:102CE00002F002FA299902F0FFF9514602F0FCF9CC
:102CF00002F025FC40000690DDF8A0A002F0DDFB0C
:102D0000594602F0BFF9514602F0BCF902F017FC37
:102D1000069002F0D2FB494602F024FA07F00CFEBE
:102D2000CDE907060996069802F0C7FB494602F06E
:102D300019FA0CF025F80A901CAA694620A809F097
:102D4000C5FD6A4607A91CA809F0C0FDD4F8BC005F
:102D5000EA46002810DD00261E215AF8260045F814
:102D6000260002F0FFF902F0EAFB07EB8601761C71
:102D7000C1F8A800042EEFDB00E00BE0D4F8BC00A3
:102D80004FF0FF3503280AD106E0C7F820012BB029
:102D9000BDE8F08F069875E700F067FEF0B357F8CE
:102DA000A80F02F08AFB4E46494602F0DBF91C9060
:102DB000786802F082FB314602F0D4F91D90B868C1
:102DC00002F07BFB314602F0CDF91E90F86802F06C
:102DD00074FB314602F0C6F91F90B86FA83F002877
:102DE000D5D0D7F8B8002946A83702F0BBF907F0CC
:102DF000A3FD1E2102F0B6F902F0A1FBC7E900080D
:102E0000C7F808802946386902F0ACF90BF0B8FF22
:102E10001E2102F0A7F902F092FB00E01CE0F8602E
:102E2000D4F8C010A83F279844E00000B810002054
:102E30000000204100409C450000484300004842FB
:102E40000000C84340420F000E2DB23D0000794003
:102E50000088B340E10237472946D7F8B80002F0AE
:102E600081F907F069FDCDE90708CDF824802946EE
:102E7000D7F8B80002F076F90BF082FF0A906A46A4
:102E800007A920A809F022FD684609F0CBFD00251E
:102E900056461E2156F8250002F064F902F04FFB59
:102EA00007EB85016D1CC1F8A800042DF1DBD4F8F7
:102EB000C01027980AF046F8D7F8200100288FD0D4
:102EC000401E62E770B590F8B810664ACC064FF025
:102ED00000034FF0030101D4C2E94813B0F82041C8
:102EE000E40509D4048EE40503D5B0F87440E40584
:102EF00002D4C2E948131AE0D2F8341139B1D0E94A
:102F00003013C91A4FF47A73B1FBF3F105E0D0F82E
:102F1000B01044F62064A14202DBC2F830110AE08E
:102F2000D2F82C512944C2F82C11A14201DA002018
:102F300070BDC2E94B31FFF721FEF8E710B54FF441
:102F40009C71484802F027F8464C4FF08040002121
:102F5000C4F8FC0044F8A80F4248A83009F0F2FF7A
:102F60004FF47A7060674FF07E50606410BD3D4949
:102F7000C1F8EC00002070473A49C1F82801002050
:102F800070473849C1F834010020704704224FF4DB
:102F90001671AFF2CF0009F035BEAFF2D7000AF0DC
:102FA00035B910B5FFF7CAFF2E490020C1F8280136
:102FB000C1F83401AFF22B00BDE8104009F0B0BEFB
:102FC000AFF237000AF050B92DE9FF470C4625490A
:102FD0001546074699463C220C31224801F0B4FFC1
:102FE000204950225831A1F1100001F0ADFF1D4ED3
:102FF00095E8070006F13C031B4D83E807001ECC53
:1030000006F1980080E81E00D6F82401401CC6F89E
:103010002401062802DD0620C6F82401C0F10604BA
:1030200007F1A00818E006EB04116A46484648314B
:1030300009F0F4FB04EB440006EB80016A464046CD
:1030400008F090FE074625F0004120F0004002F015
:103050002FFB00D23D46641C062CE4DB04B028465E
:10306000BDE8F087F80F0020002474491FB5014621
:103070001022684601F068FFF6489DE80E0080E8DF
:103080000E00F5499DF80C0081F8B001002004B055
:1030900010BD1FB5EF490EC98DE80E00EE49102294
:1030A00091F8B0118DF80C10694601F04DFF002029
:1030B000EDE72DE9F04F91B000251821684601F0A9
:1030C0006AFF0024182106A801F065FFE249A04626
:1030D000C14691F8C00101287ED1D1F8B8B1D1F82C
:1030E000B4A10022C2EBC20000EB4001DA4800EBC1
:1030F000810E9EF850000F90002863D000215EE002
:103100005EF82130DDE900676D1CD8170E939B191E
:103110007841CDE900300EEB8100EDB243690D93AB
:10312000DDE9027CDE17DB1946EB0C06CDE9023641
:10313000836ADDE9047CDE170C93DB1946EB0C0691
:10314000CDE90436C06B0E9BDDE9067C83FB006392
:10315000360C46EA0346F6194CEB2343CDE90663E9
:103160000D9BDDE9087C83FB00634FEA164646EAC7
:103170000346F6194CEB2343CDE908630C9BDDE9CC
:103180000A7C83FB00634FEA164646EA0346F619BB
:103190004CEB2343CDE90A6380FB00634FEA1646FC
:1031A00046EA034616EB080849EB23490444584510
:1031B00001DA834602E0504500DD8246491C0F9843
:1031C00088429DDC521C052A8CDBA348AAEB0B012C
:1031D000D0F8BC01814200E053E052DBA5FB08724D
:1031E000E01700260F9006FB082005FB09000E9053
:1031F00084FB0410090C41EA00410014CDE90C01E4
:1032000006A800EBC601D1E90002A0FB05BC02FB49
:1032100005C2002100FB012C684600EBC601D1E984
:103220000002A0FB043802FB04820F9900FB01207E
:10323000190C0CAA41EA00494FEA204A92E80B0017
:1032400087EA010283EA000852EA080212D07A1AD9
:1032500063EB0003BBEB09006CEB0A0C4FEA0C417B
:1032600041EA1041000401F01DFE7B4901EB86019B
:10327000C1F8A401761C032EC2DB7748012180F837
:10328000B01111B00020BDE8F08FF8B5724D0E46B8
:103290000446D5E96D01091A052291FBF2F1301AB5
:1032A00090FBF1F0C0B28DF80000042801D9202075
:1032B000F8BDC0EBC00000EB400005EB800191F8C9
:1032C0005000052816D0421C81F850209DF80010AF
:1032D000C1EBC10101EB410105EB810202EB800171
:1032E000CE63236842F8203060684861A068886235
:1032F0000020F8BD01F14003181F1022194601F00B
:1033000023FE9DF800001022C0EBC00000EB40003F
:1033100005EB8000011D01F017FE9DF80000102252
:10332000C0EBC00000EB400005EB800000F118018D
:10333000143001F009FE9DF800001022C0EBC0001F
:1033400000EB400005EB800000F12C01283001F07B
:10335000FBFD0420BAE730B585B0044603A96846F2
:1033600008F02EFF04A808F0E9FF02282BD0D4F8BB
:10337000E4000399401A384991F8B02112B308B318
:10338000D1F8A421009C80FB0232150445EA1342C7
:1033900022440092D1F8A821019C80FB023215043E
:1033A00045EA134222440192D1F8AC11029A80FB03
:1033B0000110030443EA11401044029003216846BF
:1033C00009F06EFE0CE0606B032809D108F00EFFD7
:1033D00030B168460399FFF758FF08B9FFF769FE57
:1033E00005B0002030BD10B54FF4E2711A4801F06D
:1033F000D2FD19481949C0F8B4114FF4AA01C0F818
:10340000B8114FF4A021C0F8BC11012180F8C011FF
:10341000002010BD1049C1F8B801002070470E49C6
:10342000C1F8B401002070470B49C1F8BC0100206D
:10343000704758B10849D1F8A4210260D1F8A821F9
:103440004260D1F8AC1181600020704705207047C0
:1034500024207047D4120020301100200000D8FF33
:1034600020B12D4981F8C001002070472420704709
:10347000294B93F8B101002818D0D3E96D10401AF8
:10348000052190FBF1F00020C0EBC00101EB4101F0
:1034900003EB810191F8502022B1002100E0491C8A
:1034A0008A42FCDC401C0528EEDB00207047082225
:1034B00096211A4809F0A6BB184809F0A7BE10B516
:1034C000FFF791FF4FF49A7310221549154809F040
:1034D000F1FB20B9AFF2290009F022FC08B101206C
:1034E00010BD0D49012081F8B101002010BD10B5BB
:1034F000094C94F8B101002808D0084809F086FE6C
:10350000AFF2550009F0B0FE08B1012010BD002057
:1035100084F8B10110BD00003011002057330008BD
:10352000933000086D300008002803DDFE490122B9
:10353000C1E920020020704710B5B821FA4801F017
:103540002AFDF948F949C160F9498160F9490160EA
:10355000F94941604FF0804141664FF4FA61C1671B
:10356000F649C0F89C10002010BD2DE9F041EE4C4A
:103570000E4607460025216802F0A4F811D338460C
:10358000616802F095F80CD32069012813D1304608
:10359000E16802F097F804D33046A16802F088F899
:1035A00009D2606F20B9E048A16D183009F0CAFC5B
:1035B0000120C4E91D05D4E91E01884204DB606FC7
:1035C000012800D1E5656567BDE8F08170B50C465E
:1035D000054608F05BFDD44A002110B9D848854261
:1035E00002DD1161516102E01069002808D15069C3
:1035F00020445061B0F5FA7F02DD0120C2E90401E8
:1036000070BDF0B58DB00D4614460646694609F00A
:103610008BFA09AA3146284609F000F929463046B6
:1036200009F0D9F80021EC460DF1240E00231A46CA
:10363000184601EB41073D180EEB80065CF825505B
:103640007668401CC5FB06320328F4DB980F40EA7D
:10365000820044F82100491C0329E7DB0DB0F0BDCE
:10366000B1490020C1F88C00704770B504468068ED
:1036700001F023FF014601F005FD0546606801F0F9
:103680001CFF014601F0FEFC0646206801F015FF14
:10369000014601F0F7FC314601F09CFC294601F09F
:1036A00099FC0BF0ACFBBDE870406FF00F0101F02E
:1036B00059BD70B50E4600259B4C012130B1012843
:1036C0000CD0C4F8981044F88C5F29E0C4F8A060CE
:1036D000C4E92965E4E92415A56070BD3046D4F835
:1036E000A01001F0C9FC20F00040D4F89C1001F0BB
:1036F000DFFF13D254F8945F31466D1C25602069BA
:1037000001F068FC2061943C312DE6DD022144F893
:10371000901F8C4901F0E8FCA06170BD44F8905FF7
:10372000656070BD2DE9FF4F8BB000267E4C0546CD
:10373000039604960596D4F88800934637460028E9
:103740007ED008F061FD10B103A808F029FDD4F87F
:103750008000A146002819DD01204C46C9F88400EC
:1037600008F052FD48B103A808F056FD8009B0F5F5
:10377000C87F02D2D4F8800004E0D4F88000401B57
:10378000C4F88000002801DCC4F8847008F034FF1D
:10379000002855D000240E9850F8240001F08DFE2A
:1037A00082465BF8240001F088FE6FF00F08414666
:1037B00001F0D8FC514601F065FC414601F0D2FC15
:1037C000314601F007FC641C0646032CE3DB584637
:1037D000FFF74BFF01460690304601F085FC4FF0A5
:1037E0007E58DFF864A1404501DD404602E05045C7
:1037F00000D9504607F004F88346D9F88C004E46AD
:1038000070B13168069801F053FF09D271680698CB
:1038100001F058FF04D25946D6F89000FFF749FF4F
:10382000684608F071FD40490C22AC31684601F051
:10383000C4FB18B9D6F8980001286CD13A4800E0CA
:10384000C6E09DE80E00AC3080E80E00009818B984
:10385000019808B9029858B36846FFF706FF044676
:1038600010F0FF4F57D0DFF8E4902046494601F0B2
:1038700003FC014601F006FC0BF0C1FA70604946FA
:10388000204601F0A7FB014601F0FCFB0BF0B7FA64
:103890003060029801F011FE6FF00F0101F062FC40
:1038A000214601F021FC044640451FDD444620E04E
:1038B0002048306020487060D6F89800012804D075
:1038C0001B48B0601948F06025E0D6F89C80D6F817
:1038D000A8404146204601F0CFFBB060414620465B
:1038E00001F078FBC6F89870F06014E0544500D9F8
:1038F0005446204606F084FFD6F89C1001F0BCFB2D
:10390000B060204606F07CFFD6F89C1001F062FB08
:10391000C6F88C70F060DFF81080F16D08F158087F
:1039200001BB0120002413E0F41200200000B44287
:103930000000B4C2000070420000F0417B142E3E33
:1039400000401C4600004842000080BF00002041AB
:10395000F06506EB04104146183008F0CFFB641CFC
:10396000042CF6DB434907AA0C460C98FFF749FEE6
:1039700021460C9808F02FFF03A808F04DFC01F039
:10398000A5FD6FF0050101F0EDFB2946FFF71EFED6
:1039900059460698FFF7E9FDD6E91E01884201DA8B
:1039A0002844B067706F90B9306E28443066B0F527
:1039B0007A7F0CDD2F4930223C39A1F110003766A7
:1039C00001F0C2FA2B4841461C3808F097FB706F93
:1039D0000FB0BDE8F08F70B588B0044604A808F0B9
:1039E000B5FBD4E93001451A684608F041FB0646AC
:1039F00004AB04F1A00269462846FFF793FE09F0E4
:103A0000B3FA08B0304670BD04224FF49671AFF29D
:103A1000390009F0F7B8AFF2410009F0F7BB10B573
:103A2000FFF78AFD00280DD1124800216438C0F844
:103A30008C100121C0F88810AFF23300BDE81040AF
:103A400009F06EB910BD10B5AFF2750009F0DEFBDC
:103A5000AFF27D00BDE8104009F0D8BB0549012058
:103A60006439C1F88C000020704702486438406F08
:103A700070470000581300202DE9F043044699B028
:103A80001D4691460E46806801F017FD014601F083
:103A9000F9FA8046606801F010FD014601F0F2FA83
:103AA0000746206801F009FD014601F0EBFA3946AE
:103AB00001F090FA414601F08DFA0BF0A0F90746AB
:103AC00020F000404FF08D4101F0FCFD7ED23068C7
:103AD00001F0F3FC6FF01D08414601F043FB049038
:103AE000706801F0EAFC414601F03CFB0590B068CB
:103AF00001F0E3FC414601F035FB0690F06801F06F
:103B0000DCFC414601F02EFB00260C960790206855
:103B100001F0D3FC394601F0E7FA0D90606801F03E
:103B2000CCFC394601F0E0FA0E90A06801F0C5FC2B
:103B3000394601F0D9FA0F9010AA0CA904A808F090
:103B4000C5FE14A904A808F052FE6A4614A910A8DC
:103B500008F0BCFE0199084601F094FA0299044667
:103B6000084601F08FFA214601F034FAFE498842F6
:103B700001DAFE4C0BE0FE49884201DAFD4C06E01A
:103B8000FD49884202DA4FF07A5400E0FB4C484687
:103B900001F093FCFA4901F0A7FA214601F072FA0C
:103BA000044608962146029801F06CFA09900198A3
:103BB000214680F0004001F065FACDE90A066A4628
:103BC00004A908A808F082FE6A4600E025E004A9DE
:103BD000104608F0DFFD684608F0E2FE1E2100985E
:103BE00001F0C0FA01F0ABFC28601E21019801F041
:103BF000B9FA01F0A4FC68601E21029801F0B2FA43
:103C000001F09DFCA8601E21039801F0ABFA01F0C1
:103C100096FCE86019B0BDE8F08396E80F0085E8EF
:103C20000F00F7E72DE9F05F05460C46806801F0CC
:103C300044FC014601F026FA0746686801F03DFCA5
:103C4000014601F01FFA0646286801F036FC0146DD
:103C500001F018FA314601F0BDF9394601F0BAF920
:103C60000BF0CDF84FF07E59002706464FF0804804
:103C7000484505DCC4E90087A760E760BDE8F09F20
:103C8000A86801F01AFC314601F02EFA824601467E
:103C9000484601F0F1F94FF40006B04200DA002086
:103CA0004FF0FF3101F05EFA0BF0A9F88346494668
:103CB000504601F08FF9B04200DA00204FF0FF319A
:103CC00001F050FA0BF09BF88246686801F0F5FBB2
:103CD000014601F0D7F90646286801F0EEFB0146DF
:103CE00001F0D0F9314601F075F90BF088F806467D
:103CF0004845BFDD1E21504601F034FA01F01FFC9B
:103D00002060686801F0D9FB314601F0EDF95946B1
:103D100001F0B8F91E2101F025FA01F010FC6060F5
:103D2000286801F0CAFB314601F0DEF9594601F07E
:103D3000A9F9944901F0A6F901F001FCC4E90207D0
:103D40009CE72DE9F04105460C46C06801F0B5FB43
:103D5000014601F097F98046A86801F0AEFB0146E4
:103D600001F090F90746686801F0A7FB014601F0F1
:103D700089F90646286801F0A0FB014601F082F9A6
:103D8000314601F027F9394601F024F9414601F0A6
:103D900021F9B0F5000F06DA4FF0804020600020D6
:103DA0006060A0602DE00BF02AF801464FF07E50D5
:103DB00001F09AF91E2101F0D5F90646286801F0B4
:103DC0007CFB314601F05EF901F0B9FB20606868C8
:103DD00001F073FB314601F055F901F0B0FB606072
:103DE000A86801F06AFB314601F04CF901F0A7FB2D
:103DF000A060E86801F061FB314601F043F901F091
:103E00009EFBE060BDE8F08170B5044690F830009C
:103E100088B0400676D5A069002801DB014600E0A5
:103E200041424FF480320026574D91420BDAE1694E
:103E3000002900DA4942914205DA216A002900DAB4
:103E40004942914260DB002800DA40424FF4C80149
:103E500088420BDCE069002800DA4042884205DC39
:103E6000206A002800DA4042884201DD032000E099
:103E70000220A863696BA06A814219D06863A06AB6
:103E800001F01BFB414901F02FF91D2101F06AF9F6
:103E900001F0AEFB3E4A3F4B01F017FA082201F059
:103EA000F5FA00223C4B01F082FA01F082FB286314
:103EB0000496296BA06908F055FC0590296BE06910
:103EC00008F050FC0690296B206A08F04BFC079024
:103ED0006A4604A92C4808F0A1FC00982A4A8001EF
:103EE000009001986946800101900298800102903B
:103EF000039880010390104608F03AFC22490846D6
:103F0000FFF71FFF08B070BDAE63FBE72DE9F0437C
:103F10000446D0F820018FB041067CD51A4DD4F864
:103F200010111E4B2A68891AD4F82C215A438A4250
:103F300001DA032100E00221A963810504F58870FC
:103F4000804601D51049D4E0002104A808F038F9D2
:103F50000D490C223C3104A801F02FF808BBD4F81D
:103F60002801A96D88421BE017B75139A69BC43BB5
:103F70000AD7233C8FC2753DCDCC4C3ECDCCCC3E38
:103F80000014CD47000080CEAC13002000247449FB
:103F9000112D4454FB2109400080664071981C009B
:103FA0007ED0208807AB80B204AA616A07F038FF90
:103FB000099801F082FA014601F064F80746089872
:103FC00001F07BFA014601F05DF80646079801F022
:103FD00074FA014601F056F8314600F0FBFF39460D
:103FE00000F0F8FF0AF00BFF0646E84901F04AF836
:103FF000E74901F079F86FF00F0101F0B3F80746D7
:10400000D4F8280101F059FA394601F03BF8E149AA
:1040100001F06AF800E06EE04FF0FF3101F0A2F825
:10402000074606F089FC814638460AF0A9FE074695
:104030004FF08040864204DAA8640020E8642865D6
:1040400033E01E21484601F08DF801F078FAA864AB
:10405000079801F032FA8146CF49384601F012F84C
:104060000746494601F00EF8314601F03DF801F0EF
:1040700066FAE864089801F020FA0146384601F033
:1040800001F8314601F030F801F059FA2865099835
:1040900001F013FA0146384600F0F4FF314600E023
:1040A0000EE001F021F801F04AFA04AB686593E8EC
:1040B000070005F13C0383E80700D4F82801A86550
:1040C0006A46B649404608F0A9FBB4480AAA14302B
:1040D0006946044608F0A2FB2146404608F07BFBF7
:1040E000AE486A460AA9483808F098FBAB496846CA
:1040F0004839FFF726FE0FB08DE51FB50446A748E7
:104100006946483808F067FBA44A6946283A2046C1
:1041100008F084FBA1491DCC383981E81D001FBD82
:104120002DE9F0479D4E0446483E90F8740006F194
:104130005C0A06F12008012500F05001103692B00B
:1041400004F5887904F15C07402906D094F8200131
:1041500000F0500040280DD01EE031463846FFF7F1
:1041600061FDB4F82001C0050CD55146484608F061
:1041700032FB07E05146484608F02DFBB4F87400C6
:10418000C00509D585486946483808F024FB4246F1
:104190006946304608F042FBB4F82001C0052046CD
:1041A00002D5FFF7B3FE01E0FFF72EFE7B49324652
:1041B0004839404608F032FB94F87400400671D547
:1041C000208EB4F820110843C00578D50FAA3946CF
:1041D000304608F081FCD4E9172080FB0001C2FBC7
:1041E0000201626E6D4FC2FB0201483F4FF08042F8
:1041F000801A71F1020014DB04A808F043F8DDE92D
:10420000042080FB0001C2FB0201069AC2FB0201EE
:104210004FF08042801A71F1020002DB0420B86383
:104220000BE0B86B042808D041F28832022806D08F
:10423000032804D001283AD009E0002507E0E16E08
:1042400091FBF2F5012D00DA0125032800D0AD0025
:10425000534800244543109807948002294608F0EB
:1042600081FA08900F9829464042800208F07AFAB5
:10427000CDE909040BAA314607A808F0CFFA324667
:104280000BA9104608F074FA31460846FFF759FDAD
:1042900042486946483808F09EFA42466946304628
:1042A00008F0BCFA12B00020BDE8F08707E0E06E2D
:1042B00090FBF2F0012800DA01204500C7E7334601
:1042C00019463846E26EFFF7D7FBE1E770B50446C2
:1042D000008EC105D4F8200107D4B4F87410C905C4
:1042E00003D4C10501D4002070BDC0F30120032810
:1042F00008D02046FFF714FF2848A16B383808F093
:1043000073FFF0E704F5887124482EC9383880E837
:104310002E00F1E7234808F079BF204810B56C2142
:10432000483800F038FE1D484FF0804148380161A0
:1043300001600162C163C165002010BD1D4810B558
:10434000082219A1006800F038FE08B1322010BD23
:104350001322BDE81040C821124808F053BC10B524
:10436000FFF7DBFF002805D1AFF22F00BDE81040BA
:1043700008F0D6BC10BD10B50A4808F047FFAFF2F0
:104380004300BDE8104008F06FBF0000DB0F49405C
:104390000000344300247449000080CEF413002050
:1043A000A69BC400CD420008654D504C20352E31EF
:1043B000000000002400002010B5FE4BFE4AFF4C18
:1043C000002002EB8001401CC0B2CC620B620328CB
:1043D000F7D310BD70B5F84E002506EB8504D4F870
:1043E000B410206A01F064F902D2D4F8B40020625B
:1043F000D4F8B410E06A01F065F902D2D4F8B40040
:10440000E0626D1CEDB2032DE7D370BD3EB50B46E7
:10441000B0F8481009040091B0F84A10009A090455
:104420000191B0F84C1009040291E3494C6E121B43
:104430000092019A8C6E121B0192029AC96E511A57
:104440000291816EB0F844006A4680B207F0E8FC41
:104450003EBDF0B5D84F00242546D7F894208DB046
:104460002E46012A01D1C7F8946009A9FFF7CEFFB3
:1044700005A807F06BFE059909986022A0EBA13012
:10448000099006990A98A0EBA1300A9007990B9819
:10449000A0EBA130CA490B90081F00F055FD0DF1AB
:1044A000240CC7489CE80E00143080E80E006846D3
:1044B00007F0E8FEC24960226C31081F00F044FD9D
:1044C000BF489DE80E00803080E80E0000210922E0
:1044D000D7F82C04401CC7F82C0401EB410007EB73
:1044E0008000DDF800C0D0F84C33491C93FBF2F398
:1044F0001C44D0F85033092993FBF2F31D44D0F843
:10450000543393FBF2F31E44D0F8B83393FBF2F329
:1045100063440093D0F8BC33DDF804C093FBF2F39E
:1045200063440193D0F8C003029B90FBF2F018445F
:104530000290CDDB002C00DA6442002D00DA6D42DF
:10454000002E00DA76420098002800DA40420090FF
:104550000198002800DA404201900298002800DA11
:1045600040420290009900208C4200DA012001991B
:104570008D4200DA401C02998E4200DA401CD7F8C6
:104580002C14092900DB401C04280DD197F82404C1
:1045900002280BD901468848D7F82824643008F04F
:1045A00055FC012008F04CFC0DB0F0BD08F014FCE7
:1045B000FAE72DE9F047804D0027DFF8088285F8FB
:1045C0002474DFF80492DFF804A206463C46C5F8DE
:1045D000287405EB8400E96BD0F8CC0001F072F888
:1045E00018D8D5E914010022534600F068FE21F0E6
:1045F000004142464B4601F00FF80BD295F82404D7
:10460000401C85F824040120D5F82814A04001435B
:10461000C5F82814641CE4B2032CDAD395F82404FA
:1046200080B3002406EBC400D0E90021104600F05E
:10463000C0FF05EB8401641CE4B24866032CF1D38F
:10464000C5F82C74A868042802DA95F82404A86038
:1046500095F82404032815D15D49E868884211DCE7
:10466000D5E914010022534600F029FE21F0004153
:1046700042464B4600F0D0FF04D2A868032801D17F
:104680000420A86053492869884215DA5249E8682D
:10469000884211DCD5E914010022534600F00FFED8
:1046A00021F000414D4A4E4B00F0B6FF04D2A868FD
:1046B000042801D10520A860BDE8F0872DE9F0416C
:1046C0003D4C0746D4F8A404012803D00025284611
:1046D000BDE8F08143494FF07E52A1F1E800134656
:1046E0000646FBF7A5FE344A3046503202F5AC715F
:1046F000FCF7AAF80500EAD06068401C6060D4E9C5
:10470000140100F056FFB96E08F02CF800F0D5FE49
:104710006FF00F0100F026FD00F06AFFC4E91401FC
:10472000D4E96A0100F045FFA065D4E96C0100F00E
:1047300040FFE065D4E96E0100F03BFF2066D4E95C
:1047400068010022284B00F07FFFC0D2274A314683
:1047500013460846FBF76CFEB9E72DE9F041044625
:104760000025D4E903010126022700F0ABFF10D297
:104770006169E06800F0A6FF0BD22564D4E904016A
:1047800000F0A0FF02D8C4E91167A1E7C4E91176DF
:104790009EE7D4E9031000F095FF2FD2D4E904017D
:1047A00000F090FF2AD226646169E06800F08AFF79
:1047B00021D81DE000401CC61814002000401C46F3
:1047C000681700209A9999999999B93F0000F03F8C
:1047D000AE47E13D00007A43BC74933C9CC420B0DA
:1047E0007268913FE01500200070A740CDCCCC3E10
:1047F000C4E911576CE7C4E9117569E72764D4E986
:10480000030100F05FFF02D8C4E9115660E7C4E974
:1048100011655DE700221146C26440F8212000EBDB
:104820008103491C5A620329F7DB0121C0E91D12EB
:10483000704730B504461420A0650A202066002584
:1048400084F870502046FFF7E5FF656530BD2DE91F
:10485000F04387B06946FFF7D9FD00252E462C4668
:10486000E8466FF00F0903AF58F8240000F025FE6A
:10487000494600F077FC47F82400014600F002FCAE
:1048800000F0B6FE2A46334600F078FC641C05466C
:104890000E46032CE8DB0AF07BFADFF8B485054608
:1048A0000E460024B94659F8240000F0A1FE2A461D
:1048B000334600F07CFD00F0DFFE08EB8407D7F8FC
:1048C000301400F087FB641CC7F83004032CEADBCB
:1048D000D8F88414491CC8F884140121C8F8AC1411
:1048E00007B0BDE8F0832DE9F04186B0054604AA83
:1048F00003A9684607F050FE002637463446E846CE
:1049000058F82400014600F0BDFB00F071FE32466D
:104910003B4600F033FC641C06460F46032CEFDBDD
:104920000AF036FA06460F46002458F8240000F034
:104930005FFE32463B4600F03AFD00F09DFE55F822
:10494000241000F047FB45F82400641C032CECDB2A
:10495000686D401C68650120E86706B0B8E62DE97F
:10496000F05F0025DFF8ECA404464FF07E5BA8461C
:10497000206D00F0A2FD014654F8250000F0B4FBC4
:1049800004EB85060746B169514501D381F000412A
:10499000574501D2384601E087F0004000F06CFB3B
:1049A000B7613063D4F83C905946484600F064FB48
:1049B000716A00F067FB394600F00CFB494600F0D5
:1049C00093FB7062504501D380F00040F06044F8E2
:1049D00025806D1C032DCBDB2046FFF7BEFEE06C6F
:1049E000B0F57A7F01DA401CE06494F87010042678
:1049F00003270125206C4FF0050A06290AD2DFE8BB
:104A000001F0030B142A4E326567C4F84C80A56789
:104A100084F87050BDE8F09FE06F0128FAD10220C1
:104A200084F87000C4F87880F4E704EB8009616EC4
:104A3000D9F80C0000F046FE03D884F870604046B8
:104A40002AE0A16ED9F80C0000F032FE2ED81BE04F
:104A50006567A567DEE704EB8000616EC06800F063
:104A600031FED7D8E9E704EB8009A16ED9F80C0034
:104A700000F01EFE08D9F849D9F83000884206D95E
:104A8000216EE06C8842C5DB84F87070E0E784F842
:104A900070604046C4F84C806067A067BAE704EBDA
:104AA0008000E16EC06800F003FEB3D884F870A007
:104AB000C4F84C80CCE710B5044600F0FEFCE74992
:104AC00000F0E0FAE64900F00FFB4FF0FF3100F094
:104AD00049FB00F08DFD05F027FF1E2200F0D6FCFB
:104AE00000F067FDDA49C1E9204010BD2DE9F04F23
:104AF00091B000250446009501950295C06E44F6DC
:104B00002061D34E884206DBD6F88010884210D050
:104B1000FFF7D1FF0DE0D6F848231044C6F848034C
:104B200088427DDBE16E814201D0FFF7C4FFC6F809
:104B30004853206BC6F8B0042046FFF788FE06F500
:104B4000906003C8814204DBC648FFF708FFC6F83F
:104B50008454D6F8A804012802D12046FFF779FC36
:104B6000D6F8A40401285BD1684607F0ABFB029994
:104B7000084600F087FA01998046084600F082FA5C
:104B800000990746084600F07DFA394600F022FAFF
:104B9000414600F01FFA0AF032F90E21F06000F0F1
:104BA000E1FA00F0CCFCADF81C00AF49A946ADF825
:104BB0001E50ADF8205007A80991FDF7E1FB03A8AE
:104BC00007F0C4FB316F039807F0CCFD0546716F09
:104BD000049807F0C7FD0544B16F059807F0C2FDC2
:104BE0000544F16F069807F0BDFD05EB000803AF23
:104BF000002597E80F0006F170070DF1340A87E8E9
:104C00000F000DF1280B04EB4507A16E37F8480F94
:104C1000000407F0A7FD4AF8250000F04EFC00E074
:104C200098E06FF00F0100F09DFA06EB85014861F6
:104C3000388801044BF825106D1CEDB2032DE2D32A
:104C400089480AA9E8380746FBF785FCD6F82813F7
:104C5000306881427EDBD4F8E40000F02EFC6FF077
:104C60000F0100F07FFAD6F8D810054611F0FF4F7B
:104C700006D0284600F000FA20F00040C6F8DC001C
:104C8000C6F8D850B068062811D2DFE800F0030358
:104C900003030A1A7548B0634FF07E50F063C820D2
:104CA00004E07348B0637348F06364203064208E7E
:104CB000C00509980BD4FDF777FA00F00CFC6849A1
:104CC0000AE06D48B0636D48F0633220EEE7FDF70F
:104CD000CCF900F000FC6A4900F006FA3061982136
:104CE000099800F058F9D6F8841041453BDA30694C
:104CF000B0F5000F37DBB16B00F0DAFC33D2316C6A
:104D00007068884205DA2046FFF7D8FC002852D0A8
:104D10000BE05C49D6F8B000884206DB2046FFF77E
:104D2000CDFC002847D0C6F80490002006EB800197
:104D3000401C4A69C0B2C1F8B4200328F6D3FFF77B
:104D400049FB002406EB8405E96A286A00F094F91F
:104D5000641C00E02EE0E4B2C5F8CC00032CF1D3D3
:104D60004948FFF726FC002406EB84056969D5F85D
:104D7000980000F081F9641C20F00040E4B2C5F80E
:104D8000A400032CF0D3F6E9290100F023F9B1685F
:104D900000F020F9F0600020A43E06EB8001401CEA
:104DA0004A69C0B2C1F898200328F6D3E8213846F2
:104DB00000F0F1F8002011B0BDE8F08F10B54FF40D
:104DC0009761234800F0E7F8214C0A202060400753
:104DD0002067FFF7F1FA2348FFF72BFD2068C4F89E
:104DE00080044FF08440C4F86C041E20C4F88C0486
:104DF0002648C4F898042648C4F894042548C4F802
:104E00009C041920FDF769FD002010BD012240F22D
:104E10005231AFF2273007F0F5BEAFF22F3008F075
:104E2000F5B910B5FFF7CAFF002805D1AFF223008E
:104E3000BDE8104007F074BF10BD10B5AFF253309D
:104E400008F0E4F9AFF23B00BDE8104008F00CBAFE
:104E50001814002000008080CDCC4CBD368D27403A
:104E60000024744948180020C81600200080BB4464
:104E7000000096439A99993F000070423333B33F44
:104E80000050C347CDCC4C3DC0150020CDCCCC3E0E
:104E9000CDCC4C3F3333333F01488068704700002E
:104EA000181400202DE9F0410024061B254671F15D
:104EB000000605DA01240027D0EB070067EB0101AB
:104EC000161E73F1000605DA0027D2EB0702012552
:104ED00067EB030300F016FC86460E4617469C4619
:104EE000AC4204D00025D0EB050E65EB010624B1E1
:104EF0000020D2EB000760EB030C704631463A46C7
:104F00006346BDE8F081202A04DB203A00FA02F172
:104F1000002070479140C2F1200320FA03F31943A7
:104F200090407047202A06DBCB17203A41FA02F066
:104F300043EAE07306E041FA02F3D040C2F12002F6
:104F4000914008431946704710B5431A934209D25D
:104F50008318881803E010F8011D03F8011D521E84
:104F6000F9D210BD40EA01039B0703D009E008C94C
:104F7000121F08C0042AFAD203E011F8013B00F81E
:104F8000013B521EF9D210BDD2B201E000F8012B54
:104F9000491EFBD270470022F6E710B513460A46B9
:104FA00004461946FFF7F0FF204610BD421C10F8DA
:104FB000011B0029FBD1801A704730B50446002040
:104FC000034600E05B1C934203D2E05CCD5C401BD7
:104FD000F8D030BDF0B480EA0102D40F4200B2EB49
:104FE000410F02D20246084611464A0042D0C30D84
:104FF000DDB2C1F3C752AD1A202D35DAC1F3160167
:1050000041F4000204B15242C5F1200602FA06F151
:105010002A411044B3EBD05F23D0C4B1012DA0EBE3
:10502000C35009DCF0BC4FF0004202EAC352DBB2CD
:1050300000F5000000F0B0BB400000F1807000EB14
:10504000C350A0F1807040EAD170490009E04908DE
:1050500041EAC071A0EBC35000F50000400800EB2E
:10506000C350F0BC00F08FBB6142012202EB410152
:10507000001BF6E7F0BC704781F00041AAE780F022
:105080000040A7E780EA010210B502F000434000AB
:1050900022D04A001FD0010E01EB1261C0F356006E
:1050A000C2F3560240F4000042F40002A0FB0220CA
:1050B00000047F39140400D0401C50EA124001D48F
:1050C0004000491EC2B20C0604EBD010401C400840
:1050D000802A02D003E0002010BD20F0010000294A
:1050E00000DA0020184310BD30B480EA010202F05B
:1050F000004530F0004221F0004013D090B1C30DC4
:10510000D40DC2F31601C0F31600E41A41F40001F5
:1051100040F400027D34914201D3641C00E0490058
:10512000002C02DA30BC002070474FF4000000234E
:10513000914201D3891A034340084FEA4101F7D154
:1051400051B1914202D14FF0004105E002D24FF03F
:10515000010101E06FF0010103EBC450284430BCB1
:1051600000F011BB420005D0C0F3C7525242914239
:1051700001DC0020704700EBC15070472DE9FE4F65
:10518000804681EA0300C00F0C46009021F00041E8
:1051900023F00045B8EB0200A94105D24046214664
:1051A00090461C460B46024623F00040104347D071
:1051B000270DC7F30A00C3F30A510290401A019069
:1051C00040286BDAC3F3130040F4801B009892462A
:1051D00020B10023D2EB030A63EB0B0B0198594675
:1051E000C0F140025046FFF78EFE06460D4650467F
:1051F0005946019AFFF796FE10EB08006141002422
:1052000087EA115284EAE7731A4340D0009A62B3E6
:10521000019A012A4FEA075215DC001B61EB0201DB
:105220004FF0004202EA0752CDE90042001C41F56E
:10523000801132462B4600F0ECFA03B0BDE8F08F47
:1052400040462146F9E7001B61EB0201001C41F5D5
:10525000801300185B412018A2F5001747EB0301EB
:1052600040EAD570B6196D4111E06D084FEA360677
:1052700045EAC0754FEA0752001B61EB0201001CB2
:1052800041F5801149084FEA30000019514132467A
:105290002B4603B0BDE8F04F00F0ACBA00980122F5
:1052A00040000023D0EB020263EBE073009821463C
:1052B0004FEAE074B8EB000061EB0401E9E783F02A
:1052C00000435BE781F0004158E72DE9FE4F81EA9A
:1052D000030404F0004421F0004100944FF0000B5F
:1052E00023F0004350EA01045ED052EA03045BD08D
:1052F000C3F30A54C1F30A552C44A4F2F3340194C5
:10530000A0FB0254C1F3130141F48011C3F3130352
:1053100043F4801301FB024400FB034E840A970A06
:1053200044EA815447EA8357A4FB076802958D0A33
:1053300005FB07854FEA932C04FB0C542705029DBF
:105340004FEA065847EA1637B5EB08056EEB070C2F
:10535000870E920E47EA811742EA8312A7FB0201E9
:10536000B6EB0B0164EB00042B0D43EA0C335E1823
:1053700044EB1C50DA465146E7FB0201C5F3130427
:105380004FEA0B3343EA14534FEA0432019C43EAD9
:105390000603A4F10C040294009CCDE900B400F0D3
:1053A00038FA03B0BDE8F08F00200146F9E72DE997
:1053B000F04D81EA030404F0004B21F0004514464F
:1053C0004FF0000A23F0004150EA050220D054EAD1
:1053D00001021DD0C5F30A570246C5F31303C1F3FA
:1053E0001300C1F30A5640F4801543F48013A7EB71
:1053F0000608101BD64608F2FD3873EB050002D3F1
:1054000008F1010801E092185B41B8F1000F03DADE
:1054100000200146BDE8F08D00204FF480110646C3
:1054200084460EE0171B73EB050705D3121B63EBD5
:10543000050306434CEA010C49084FEA3000921874
:105440005B4150EA0107EDD152EA030012D082EA33
:10545000040083EA0501084305D0101BAB4106D2C6
:105460000122002306E000224FF0004302E06FF02B
:10547000010253101AEB06004CEB085110EB0A0026
:1054800041EB0B01BDE8F04D00F0B4B970B521F06F
:10549000004303430CD0C1F30A550024D5EB0405A7
:1054A00064EB0403D617AD1AB34102DB00200146BA
:1054B00070BD201841EB025170BDC10F80EAE07051
:1054C0000844CA079623002100F066B996230022FB
:1054D000114600F061B9F0B4CA17CB0F50405140EB
:1054E000C61841F100054FEAC372314628004FF05B
:1054F000960303D0B623F0BC00F04EB9304600212D
:10550000F9E70EB5C10F80EAE0700844CA07002130
:1055100040F233438DE80E000A460B4600F079F95D
:1055200003B000BD0EB540F2334102910021CDE938
:1055300000110A460B4600F06CF903B000BD00F004
:10554000004220F00040C10DC0F3160040F40000FE
:105550007F2901DA00207047962903DCC1F196010A
:10556000C84001E096398840002AF4D04042704794
:1055700010B500F0004420F00040C20DC0F316004A
:1055800040F400007F2A02DA0020014610BD00210D
:10559000962A03DCC2F19602D04002E0963AFFF769
:1055A000B2FC002CF2D00023D0EB030063EB01012E
:1055B00010BD70B5C1F30A5201F000450024C1F3DB
:1055C000130140F2FF3341F480119A4201DA0020C6
:1055D00070BD40F233439A42A2F2334203DC52429E
:1055E00000F0C1F800E090402C43F1D0404270BD83
:1055F00000F0004230F000400AD0C10D01F56071AA
:10560000C0F3160042EA0151C20840071143704737
:10561000002001467047000030B5041E71F10004FF
:1056200004DB4FF00044404264EB0101141E73F1AF
:10563000000405DB1C464FF00043524263EB0403B9
:105640008B4208BF824230BD30B5041E71F10004A8
:1056500004DB4FF00044404264EB0101141E73F17F
:10566000000405DB1C464FF00043524263EB040389
:10567000994208BF904230BD01F0004330B421F0A0
:10568000004150EA010206D00A0DA2F56072C1F392
:105690001301002A02DC30BC00207047440F44EAAA
:1056A000C104C100E01830BC00EBC25000F06BB880
:1056B000002801DBC0F10040002901DBC1F10041FD
:1056C00081427047002801DBC0F10040002901DB66
:1056D000C1F100418842704730B50B4601460020B9
:1056E0002022012409E021FA02F59D4205D303FAA4
:1056F00002F5491B04FA02F52844151EA2F1010225
:10570000F1DC30BD2DE9F05F0546002092469B4656
:1057100088460646814640241BE0284641464746C7
:10572000224600F020F853465A46C01A914110D341
:10573000114618462246FFF7E6FB2D1A67EB0108D3
:105740004F46224601200021FFF7DDFB17EB000941
:105750004E41201EA4F10104DFDC484631462A46B2
:105760004346BDE8F09F202A04DB203A21FA02F0EC
:105770000021704721FA02F3D040C2F1200291408B
:105780000843194670470029A8BF7047401C4900CC
:1057900008BF20F00100704710B4B0FA80FC00FA96
:1057A0000CF050EA010404BF10BC704749B1CCF1C1
:1057B000200421FA04F411FA0CF118BF012121434D
:1057C0000843A3EB0C01CB1D4FEA00614FEA102008
:1057D00042BF002010BC704700EBC35010440029AA
:1057E000A4BF10BC7047401C490008BF20F0010056
:1057F00010BC704710B5141E73F1000408DA401C89
:1058000041F1000192185B411A4301D120F00100DF
:1058100010BD2DE9F04D92469B4611B1B1FA81F2CF
:1058200002E0B0FA80F220329046FFF76CFB0446AB
:105830000F4640EA0A0041EA0B0153465A46084324
:1058400013D0114653EA010019D0C8F14002504666
:10585000FFF789FF05460E46504659464246FFF778
:1058600052FB084305D0012004E020463946BDE83C
:10587000F08D0020054346EAE0762C4337430A9832
:105880006305E40AA0EB08000022FD0A44EA47543D
:105890000A3002D500200146E9E7010510196941E7
:1058A000DDE9084500196941BDE8F04DA2E72DE9A1
:1058B000F04D00231A461B1A8A4103DB00200146E3
:1058C000BDE8F08DC1F30A52C1F3130141F4801514
:1058D0004FF0000BD10702D100186D41521E002776
:1058E000044640F2FF11384601EB620A3E4680460C
:1058F000024600204FF48011FFF735FFC2197141B5
:10590000BB1846EB0100B4EB030C75EB000C04D3A1
:10591000E41A65EB000517460E46241908F101004C
:105920006D4180463428E3DDF91946EB0600091B7A
:10593000A84103D24FF0FF32134601E00022134684
:105940001BEB070046EB0A51BDE8F04DFFF752BFD5
:10595000C1F30A52C1F3130140F2FF3341F4801145
:105960009A4202DA00200146704740F233439A42DD
:10597000A2F2334202DC5242FFF7F5BEFFF7C3BA90
:10598000064C074D06E0E06840F0010394E807008C
:1059900098471034AC42F6D3FAF7FAFB40FF000800
:1059A00060FF0008002904D0816841F00101816096
:1059B0007047816821F001018160704710B5074C84
:1059C000226807490A40D0E900131943D0E90230A0
:1059D000034319431143216010BD0000042301401B
:1059E000E030FCFF10B501210C02204601F02CFF35
:1059F0002046BDE81040002101F026BFC06C80B2F7
:105A000070470246002012680A4200D00120704709
:105A100030B542680F4B1A400C790B6842EA0422F9
:105A20001343436083680C4A1340D1E90342224385
:105A30004D798C6844EA450422431A438260C26A65
:105A400022F47002097D491EC9B242EA0151C162C5
:105A500030BD0000FFFEFFFCFDF7FFC070B507265C
:105A600009290AD9C568A1F10A0404EB4404A64037
:105A7000B543A3401D43C56007E0056901EB410440
:105A8000A640B543A3401D4305611F23072A09D241
:105A9000446B521E02EB820293409C4391400C43A4
:105AA000446370BD0D2A09D2046BD21F02EB82023F
:105AB00093409C4391400C43046370BDC46A0D3A0B
:105AC00002EB820293409C4391400C43C46270BD40
:105AD000816841F080418160704700002DE9F84302
